:0400000086EF00F097
:100008005982FACF20F0FBCF21F0E9CF22F0EACFD6
:1000180023F0E1CF24F0E2CF25F0D9CF26F0DACFD4
:1000280027F0F3CF28F0F4CF29F0F6CF2AF0F7CF56
:100038002BF0F8CF2CF0F5CF2DF0F2AC26EF00F036
:1000480028EF00F068EF00F0A3A42DEF00F02FEFE9
:1000580000F03AEF00F0A4A434EF00F036EF00F01F
:100068003AEF00F085EC0DF068EF00F0A0A63FEF46
:1000780000F041EF00F058EF00F0A1A646EF00F0C5
:1000880048EF00F058EF00F002D856EF00F00500F6
:100098000101FA6E5051FD6E5151FE6EF850FF6E1F
:1000A800FA50120068EF00F09DA65DEF00F05FEFD8
:1000B80000F068EF00F09EA664EF00F066EF00F035
:1000C80068EF00F048EF00F02DC0F5FF2CC0F8FFF6
:1000D8002BC0F7FF2AC0F6FF29C0F4FF28C0F3FFA2
:1000E80027C0DAFF26C0D9FF25C0E2FF24C0E1FF00
:1000F80023C0EAFF22C0E9FF21C0FBFF20C0FAFFAE
:0801080059921100E0EF22F012
:10080000003A491249024928363C3B2E49223F888A
:100810004980497849704968496049584922497C6A
:1008200041CC086C08A00829080902430002010015
:10083000C032090400000102020100052400100179
:100840000424020205240600010524010001070515
:1008500081030A000209040100020A0000000705E2
:1008600002024000000705820240000034034D00F0
:100870006900630072006F00630068006900700027
:10088000200054006500630068006E006F006C007B
:100890006F0067007900200049006E0063002E00A1
:1008A0001A03500072006F0064007500630074004A
:1008B00020004E0061006D00650012010002020080
:1008C0000008D8040A000001010200010403090421
:0108D0000027
:1008D200000E0201016F000E006F22EE06F00D0EF7
:1008E200DE6AE806FDE2680E0001696F070E6A6FB4
:1008F200680E0DEC20F0020E0001BC6F380EBB6FCB
:10090200AD0EE82EFED7BB2FFCD7BC2FFAD7720E46
:100912000001696F680E85EC1EF069C014F26AC0AE
:1009220015F214C260F015C261F0000E0001636F8F
:100932000E0E626F49EC20F0000160510201176F48
:100942001751D8B4A7EF04F0A9EF04F0A0EF07F015
:10095200000E166F9CEF06F0740E0001696F060E12
:100962006A6F020E6B6F000E6D6F0E0E6C6F680E6B
:10097200CAEC1EF018C28FF019C290F01AC291F0A0
:100982001BC292F0000E00017A6F000E7B6F800E88
:100992007C6F460E7D6F0201075106C2BBF000015B
:1009A200BC6BBBC0BCF0BB6BBB13000EBC13BBC0AB
:1009B20068F0BCC069F0000E69BFFF0E6A6F6B6F12
:1009C200010E98EC0EF068C076F069C077F06AC04C
:1009D20078F06BC079F00BEC0AF076C093F077C038
:1009E20094F078C095F079C096F0AAEC07F08FC029
:1009F20018F290C019F291C01AF292C01BF21CC2F6
:100A02008FF01DC290F01EC291F01FC292F0000E34
:100A120000017A6F000E7B6F800E7C6F460E7D6F39
:100A22000201095108C2BBF00001BC6BBBC0BCF0A3
:100A3200BB6BBB13000EBC13BBC068F0BCC069F03B
:100A4200000E69BFFF0E6A6F6B6F010E98EC0EF01D
:100A520068C076F069C077F06AC078F06BC079F050
:100A62000BEC0AF076C093F077C094F078C095F062
:100A720079C096F0AAEC07F08FC01CF290C01DF26C
:100A820091C01EF292C01FF220C28FF021C290F0DC
:100A920022C291F023C292F0000E00017A6F000E82
:100AA2007B6F800E7C6F460E7D6F02010B510AC276
:100AB200BBF00001BC6BBBC0BCF0BB6BBB13000E38
:100AC200BC13BBC068F0BCC069F0000E69BFFF0E6A
:100AD2006A6F6B6F010E98EC0EF068C076F069C019
:100AE20077F06AC078F06BC079F00BEC0AF076C050
:100AF20093F077C094F078C095F079C096F0AAECA4
:100B020007F08FC020F290C021F291C022F292C071
:100B120023F2B80E0001936F1E0E946F120E956FA2
:100B2200420E966F000E7A6F000E7B6FAA0E7C6FDC
:100B3200430E7D6F02010D510CC2BBF00001BC6B74
:100B4200BBC0BCF0BB6BBB13000EBC13BBC068F0D8
:100B5200BCC069F0000E69BFFF0E6A6F6B6F010EB9
:100B620098EC0EF068C076F069C077F06AC078F051
:100B72006BC079F00BEC0AF076C08FF077C090F082
:100B820078C091F079C092F0AAEC07F08FC002F21F
:100B920090C003F291C004F292C005F230C28FF00D
:100BA20031C290F032C291F033C292F002C293F09D
:100BB20003C294F004C295F005C296F0AAEC07F0C5
:100BC2008FC030F290C031F291C032F292C033F253
:100BD20024C28FF025C290F026C291F027C292F073
:100BE200000E0001636F830E626F02010F510EC28D
:100BF200BBF00001BC6BBBC0BCF0BB6BBB11606F38
:100C0200BC51616FDBEC1BF0000160C068F061C099
:100C120069F0000E69BFFF0E6A6F6B6F010E98ECF0
:100C22000EF068C093F069C094F06AC095F06BC092
:100C320096F0AAEC07F08FC024F290C025F291C082
:100C420026F292C027F228C28FF029C290F02AC25F
:100C520091F02BC292F0000E0001636F830E626F5F
:100C62000201115110C2BBF00001BC6BBBC0BCF051
:100C7200BB6BBB11606FBC51616FDBEC1BF0000101
:100C820060C068F061C069F0000E69BFFF0E6A6F54
:100C92006B6F010E98EC0EF068C093F069C094F08F
:100CA2006AC095F06BC096F0AAEC07F08FC028F2EC
:100CB20090C029F291C02AF292C02BF22CC28FF07E
:100CC2002DC290F02EC291F02FC292F0000E0001C0
:100CD200636F830E626F0201135112C2BBF00001F7
:100CE200BC6BBBC0BCF0BB6BBB11606FBC51616F16
:100CF200DBEC1BF0000160C068F061C069F0000E1F
:100D020069BFFF0E6A6F6B6F010E98EC0EF068C040
:100D120093F069C094F06AC095F06BC096F0AAECAB
:100D220007F08FC02CF290C02DF291C02EF292C02B
:100D32002FF20201162B1751165DD8A0A3EF06F071
:100D4200A5EF06F0ADEF04F018C276F019C277F005
:100D52001AC278F01BC279F017510001686F696BF3
:100D62006A6B6B6B010E98EC0EF068C07AF069C08A
:100D72007BF06AC07CF06BC07DF00BEC0AF076C0B1
:100D820018F277C019F278C01AF279C01BF21CC2AD
:100D920076F01DC277F01EC278F01FC279F0020110
:100DA20017510001686F696B6A6B6B6B010E98ECEF
:100DB2000EF068C07AF069C07BF06AC07CF06BC04C
:100DC2007DF00BEC0AF076C01CF277C01DF278C001
:100DD2001EF279C01FF220C276F021C277F022C241
:100DE20078F023C279F0020117510001686F696B34
:100DF2006A6B6B6B010E98EC0EF068C07AF069C0FA
:100E02007BF06AC07CF06BC07DF00BEC0AF076C020
:100E120020F277C021F278C022F279C023F230C2E8
:100E220076F031C277F032C278F033C279F0020143
:100E320017510001686F696B6A6B6B6B010E98EC5E
:100E42000EF068C07AF069C07BF06AC07CF06BC0BB
:100E52007DF00BEC0AF076C030F277C031F278C048
:100E620032F279C033F224C276F025C277F026C27C
:100E720078F027C279F0020117510001686F696B9F
:100E82006A6B6B6B010E98EC0EF068C07AF069C069
:100E92007BF06AC07CF06BC07DF00BEC0AF076C090
:100EA20024F277C025F278C026F279C027F228C250
:100EB20076F029C277F02AC278F02BC279F00201CB
:100EC20017510001686F696B6A6B6B6B010E98ECCE
:100ED2000EF068C07AF069C07BF06AC07CF06BC02B
:100EE2007DF00BEC0AF076C028F277C029F278C0C8
:100EF2002AF279C02BF22CC276F02DC277F02EC2E4
:100F020078F02FC279F0020117510001686F696B06
:100F12006A6B6B6B010E98EC0EF068C07AF069C0D8
:100F22007BF06AC07CF06BC07DF00BEC0AF076C0FF
:100F32002CF277C02DF278C02EF279C02FF222EE79
:100F420018F000EE9FF01B0EDBCFEBFFE806FCE291
:100F5200120000019251800B9B6F925192259D6F5E
:100F620091AFB6EF07F0B8EF07F0B9EF07F09D8148
:100F72009D51D8B4BFEF07F0C1EF07F0D6EF07F0ED
:100F82009D29D8A4C7EF07F0C9EF07F0D1EF07F00A
:100F9200000E8F6F000E906F000E916F000E926F19
:100FA200918F000E926FDEEF07F0000E8F6F000E32
:100FB200906F000E916F000E926F9651800B9C6F96
:100FC2009B519C19D8B4E8EF07F0EAEF07F0EBEF7A
:100FD20007F09B8D965196259C6F95AFF3EF07F026
:100FE200F5EF07F0F6EF07F09C819C51D8B4FCEFC7
:100FF20007F0FEEF07F013EF08F09C29D8A404EFE6
:1010020008F006EF08F00EEF08F0000E936F000EE6
:10101200946F000E956F000E966F958F000E966F6F
:101022001BEF08F0000E936F000E946F000E956F89
:10103200000E966F9D519C5DD8B022EF08F024EF10
:1010420008F04BEF08F09BAD29EF08F02BEF08F00A
:101052002DEF08F0800E9B1B9DC09EF09CC09DF062
:101062009EC09CF08FC09EF093C08FF09EC093F004
:1010720090C09EF094C090F09EC094F091C09EF0FB
:1010820095C091F09EC095F092C09EF096C092F0ED
:101092009EC096F0000E9E6F9D519CC097F0986B7B
:1010A200975F000E985B98BF60EF08F0985109E1D6
:1010B2001A0E975DD8A060EF08F062EF08F099EF82
:1010C20008F08F51901191119211D8A46BEF08F092
:1010D2006EEF08F0010E6FEF08F0000E9E6F000E2B
:1010E2008F6F000E906F000E916F000E926F9CC07A
:1010F2009DF0A2EF08F09EA181EF08F083EF08F0C7
:1011020089EF08F0D8909E3101099E6F8BEF08F0AD
:10111200D8909E338FA190EF08F092EF08F093EFF2
:1011220008F09E8F92359233913390338F339D2BFB
:101132009C519D5DD8A0A0EF08F0A2EF08F07CEFD3
:1011420008F09BBDA7EF08F0A9EF08F0E9EF08F05F
:101152009D51D8A4AFEF08F0B1EF08F0BBEF08F053
:10116200000E8F6F000E906F000E916F000E926F47
:101172000AEF0AF093518F279451902395519123AE
:101182009651922392A1C8EF08F0CAEF08F076EFC9
:1011920009F09EA1CFEF08F0D1EF08F0D7EF08F0E9
:1011A200D8909E3101099E6FD9EF08F0D8909E33F6
:1011B2008FA1DEEF08F0E0EF08F0E1EF08F09E8F7C
:1011C20092359233913390338F339D2B76EF09F022
:1011D20093518F5D94519059955191599251800A32
:1011E200976F9651800A9759D8B0FAEF08F0FCEF42
:1011F20008F027EF09F08F51935D976F9051945942
:10120200986F91519559996F925196599A6FFF0E15
:1012120097258F6FFF0E9821906FFF0E9921916F86
:10122200FF0E9A21926F800E9B1B9E6D9E51D8A439
:101232001DEF09F01FEF09F02FEF09F0010E8F27C4
:10124200000E9023912392232FEF09F093518F5F89
:101252009451905B9551915B9651925B8F51901195
:1012620091119211D8A438EF09F03AEF09F06FEF1B
:1012720009F09E51D8A440EF09F042EF09F06FEF58
:1012820009F0000E8F6F000E906F000E916F000E2E
:10129200926F0AEF0AF0D8908F37903791379237D2
:1012A2009EAF56EF09F058EF09F059EF09F08F8120
:1012B2009EA15EEF09F060EF09F064EF09F0D880BB
:1012C2009E3766EF09F0D8909E379D51D8B46CEFE7
:1012D20009F06EEF09F06FEF09F09D0791AF74EF1F
:1012E20009F076EF09F04CEF09F0000E9C6F9EAF0B
:1012F2007DEF09F07FEF09F097EF09F09EC097F0BC
:101302007F0E9717D8B488EF09F08AEF09F08EEFB5
:1013120009F0010E9C6F97EF09F08FA193EF09F08E
:1013220095EF09F097EF09F08AEF09F09C51D8B4D4
:101332009DEF09F09FEF09F0CAEF09F0010E8F2728
:10134200000E90239123922392A1AAEF09F0ACEF11
:1013520009F0CAEF09F08FC097F090C098F091C0E1
:1013620099F092C09AF09A359A3399339833973319
:1013720097C08FF098C090F099C091F09AC092F007
:101382009D29D8B4C7EF09F0C9EF09F0CAEF09F0F7
:101392009D2B9D29D8B4D0EF09F0D2EF09F0DAEFF6
:1013A20009F09D51D8A4D8EF09F0DAEF09F0ECEF7B
:1013B20009F0000E8F6F000E906F000E916F000EFD
:1013C200926F9D51D8A4E8EF09F0EAEF09F0ECEF33
:1013D20009F0000E9B6F9DA1F1EF09F0F3EF09F008
:1013E200F6EF09F0918FF7EF09F0919FD8909D31B8
:1013F200926F9BAFFFEF09F001EF0AF002EF0AF0E4
:10140200928F8FC08FF090C090F091C091F092C0F7
:1014120092F0120000017951800B866F7951792583
:101422008D6F78AF17EF0AF019EF0AF01AEF0AF092
:101432008D818D51D8B420EF0AF022EF0AF037EFF8
:101442000AF08D29D8A428EF0AF02AEF0AF032EF29
:101452000AF0000E766F000E776F000E786F000EA6
:10146200796F788F000E796F3FEF0AF0000E766F7A
:10147200000E776F000E786F000E796F7D51800B32
:10148200861B7D517D258E6F7CAF4AEF0AF04CEFB3
:101492000AF04DEF0AF08E818E51D8B453EF0AF064
:1014A20055EF0AF06AEF0AF08E29D8A45BEF0AF032
:1014B2005DEF0AF065EF0AF0000E7A6F000E7B6FA7
:1014C200000E7C6F000E7D6F7C8F000E7D6F72EFC1
:1014D2000AF0000E7A6F000E7B6F000E7C6F000E1A
:1014E2007D6F7A517B117C117D11D8A47BEF0AF0BC
:1014F2007DEF0AF095EF0AF0000E766F000E776F1F
:10150200000E786F000E796F800E78137F0E7913BC
:101512008651791376C076F077C077F078C078F08C
:1015220079C079F0D8EF0BF08D51D8A49BEF0AF077
:101532009DEF0AF0A7EF0AF0000E766F000E776FAC
:10154200000E786F000E796FD8EF0BF08E518DC0C0
:101552007EF07F6B7E5F000E7F5B7F0E7E25876F46
:10156200000E7F21886F76C082F077C083F078C04A
:1015720084F079C085F0000E766F000E776F000E52
:10158200786F000E796F000E896F000E8A6F000E61
:101592008B6F000E8C6F000E8E6F08EF0BF08E516A
:1015A200D8B4D6EF0AF0D8EF0AF0EFEF0AF0D890ED
:1015B2008237833784378537D890763777377837CD
:1015C20079378CAFE7EF0AF0E9EF0AF0EAEF0AF0B9
:1015D2007681D89089378A378B378C377A51825DFA
:1015E2007B5183597C5184597D518559D8A0FCEF98
:1015F2000AF0FEEF0AF007EF0BF08C8D7A51825F52
:101602007B51835B7C51845B7D51855B8E2B190EF4
:101612008E650EEF0BF010EF0BF0D0EF0AF0825157
:10162200831184118511D8B419EF0BF01BEF0BF065
:1016320033EF0BF0898133EF0BF0D89076377737A1
:10164200783779378CAF28EF0BF02AEF0BF02BEFBE
:101652000BF07681D89089378A378B378C3787079A
:10166200D8A0880778AF38EF0BF03AEF0BF01EEFF7
:101672000BF0000E8E6F8CAF41EF0BF043EF0BF0CF
:1016820067EF0BF0FF0E89157E6FFF0E8A157F6FD5
:10169200FF0E8B15806F7F0E8C15816F7E517F112F
:1016A20080118111D8B458EF0BF05AEF0BF05EEFB6
:1016B2000BF0010E8E6F67EF0BF076A163EF0BF06C
:1016C20065EF0BF067EF0BF05AEF0BF08E51D8B4C9
:1016D2006DEF0BF06FEF0BF093EF0BF0010E76272F
:1016E200000E77237823792379A17AEF0BF07CEF30
:1016F2000BF093EF0BF076C07EF077C07FF078C0EE
:1017020080F079C081F08135813380337F337E333D
:101712007EC076F07FC077F080C078F081C079F02B
:10172200874B882B88BF9EEF0BF0885108E18729F1
:10173200D8A09EEF0BF0A0EF0BF0ABEF0BF0000E7A
:10174200886F8769000E766F000E776F000E786FD4
:10175200000E796F88BFB8EF0BF0885106E187055C
:10176200D8B0B6EF0BF0B8EF0BF0C6EF0BF0000EEF
:10177200886F000E876F000E766F000E776F000E77
:10178200786F000E796F000E866F87C08DF08DA185
:10179200CDEF0BF0CFEF0BF0D2EF0BF0788FD3EF52
:1017A2000BF0789FD8908D31796F89EF0AF0120093
:1017B20004013205D8A4E0EF0BF0E2EF0BF0FEEFEC
:1017C2000BF030511F0B0009D8A4EAEF0BF0ECEF3D
:1017D2000BF0FEEF0BF00001E58F030E040131194F
:1017E200D8A4F6EF0BF0F8EF0BF0FCEF0BF0010EC4
:1017F2004D6EFEEF0BF0000E4D6E3251D8A404EF89
:101802000CF006EF0CF084EF0DF030511F0B020AC2
:10181200D8A40EEF0CF010EF0CF084EF0DF0345161
:101822000F0B0009D8B418EF0CF01AEF0CF084EF8C
:101832000DF034510F0B156E030E156023EF0CF0F3
:1018420025EF0CF084EF0DF0200E5418D8A42CEFE5
:101852000CF02EEF0CF084EF0DF00001E58F040187
:1018620034BF36EF0CF038EF0CF055EF0CF034517A
:101872000F0B156E1550020D3C0EF324D96E010E9E
:10188200F420DA6EDECF1AF0DDCF1BF034510F0BED
:10189200156E166A3A0E1524D96E000E1620DA6EEF
:1018A200DF50196E70EF0CF034510F0B156E15509E
:1018B200020DDC0EF324D96E000EF420DA6EDECFB8
:1018C2001AF0DDCF1BF034510F0B156E166AE80EBD
:1018D2001524D96E000E1620DA6EDF50196E19B07B
:1018E20075EF0CF077EF0CF07FEF0CF0FB0E1A1493
:1018F2001A6EFF0E1B141B6E84EF0CF0040E1A10EE
:101902001A6E1B501B6E34BF89EF0CF08BEF0CF07C
:101912009CEF0CF034510F0B156E1550020D3C0E5E
:10192200F324D96E010EF420DA6E1AC0DEFF1BC05A
:10193200DDFFABEF0CF034510F0B156E1550020D9D
:10194200DC0EF324D96E000EF420DA6E1AC0DEFF2C
:101952001BC0DDFF030E3119D8A4B2EF0CF0B4EFB7
:101962000CF0EDEF0CF01AC0D9FF1BC0DAFFDFAEAE
:10197200BDEF0CF0BFEF0CF0DFEF0CF034BFC4EFA3
:101982000CF0C6EF0CF0D3EF0CF034510F0B156EC8
:10199200166A3A0E1524D96E000E1620DA6EDF8210
:1019A200DFEF0CF034510F0B156E166AE80E15249A
:1019B200D96E000E1620DA6E0001DF821AC0D9FF3E
:1019C2001BC0DAFF000EDB841AC0D9FF1BC0DAFF8E
:1019D200000EDB8E84EF0DF0040E1A181A6E1B50E7
:1019E2001B6E1AC0D9FF1BC0DAFFDFAEFBEF0CF093
:1019F200FDEF0CF019EF0DF01AC0D9FF1BC0DAFF92
:101A02007F0EDF161AC0D9FF1BC0DAFF000EDB8C77
:101A1200000E0E6E050E0D6E1AC00FF01BC010F0F8
:101A2200000E126E020E116E0EEC1FF01FEF0DF083
:101A32001AC0D9FF1BC0DAFF000EDB8C040E1A1885
:101A42001A6E1B501B6E19B229EF0DF02BEF0DF021
:101A520036EF0DF01AC0D9FF1BC0DAFFDFAE34EF4C
:101A62000DF036EF0DF06DEF0DF0040134BF3CEFD9
:101A72000DF03EEF0DF04BEF0DF034510F0B156EE4
:101A8200166A3A0E1524D96E000E1620DA6EDF920F
:101A920057EF0DF034510F0B156E166AE80E152430
:101AA200D96E000E1620DA6E0001DF921AC0D9FF3D
:101AB2001BC0DAFF3B0EDF16000E0E6E050E0D6E1A
:101AC2001AC00FF01BC010F0000E126E020E116E43
:101AD2000EEC1FF073EF0DF01AC0D9FF1BC0DAFF36
:101AE2003B0EDF16040134510F0B156E166A6A0E97
:101AF2001524176E0F0E1620186E17C0D9FF18C0C6
:101B0200DAFFFE0EDF1612005404D8A48BEF0DF09C
:101B12008DEF0DF09AEF0DF060BA92EF0DF094EFA9
:101B22000DF09AEF0DF0000E656E64806488020E6F
:101B3200546E65A49FEF0DF0A1EF0DF0ABEF0DF029
:101B420064A4A6EF0DF0A8EF0DF0ABEF0DF06594D5
:101B520046EC22F060A2B0EF0DF0B2EF0DF0B5EF5F
:101B62000DF0A49497EF0EF065A0BAEF0DF0BCEF64
:101B72000DF0C9EF0DF064A0C1EF0DF0C3EF0DF051
:101B8200C9EF0DF0CBEC13F0A384040E546E6590F4
:101B920065A8CEEF0DF0D0EF0DF0D9EF0DF064A8EF
:101BA200D5EF0DF0D7EF0DF0D9EF0DF011EC23F0DA
:101BB20065ACDEEF0DF0E0EF0DF00BEF0EF064AC74
:101BC200E5EF0DF0E7EF0DF0F5EF0DF0000E0E6E04
:101BD200730E0D6E000E0F6E000E106E000E126E62
:101BE200010E116E0EEC1FF0659CC6EC22F04A50FD
:101BF200D8B4FEEF0DF000EF0EF001EF0EF04A0642
:101C02004A50D8A407EF0EF009EF0EF00BEF0EF0DA
:101C120026EC1AF065AA10EF0EF012EF0EF01BEF91
:101C22000EF064AA17EF0EF019EF0EF01BEF0EF094
:101C320058EC21F065A220EF0EF022EF0EF038EF03
:101C42000EF064A227EF0EF029EF0EF038EF0EF03F
:101C52007F0E0E6E0D68000E0F6E000E106E000EDF
:101C6200126E010E116E0EEC1FF0000E676E040E66
:101C720054603EEF0EF040EF0EF043EF0EF0A494EE
:101C820097EF0EF064A648EF0EF04AEF0EF096EFD3
:101C92000EF0000E1F6E65A651EF0EF053EF0EF020
:101CA20096EF0EF061CF57F05730E832E8320F0B63
:101CB2004C6E659657B460EF0EF062EF0EF06BEF6C
:101CC2000EF03A0E4C24D96EDA6A000EDA22DF7078
:101CD20073EF0EF0E80E4C24D96EDA6A000EDA22A7
:101CE2000001DF704C50D8A479EF0EF07BEF0EF0BC
:101CF2007FEF0EF03EEC1CF08DEF0EF0000E0E6E3C
:101D0200720E0D6E570E0F6E000E106E000E126EDA
:101D1200000E116E0EEC1FF01F2A030E1F6494EFCB
:101D22000EF096EF0EF04CEF0EF0A49412000001AC
:101D3200706F00017051D8B4A1EF0EF0A3EF0EF056
:101D4200C5EF0EF06BBFAAEF0EF0A8EF0EF0C5EFD5
:101D52000EF068C06CF069C06DF06AC06EF06BC0C6
:101D62006FF06C1F6D1F6E1F6F1F6C2B000E6D23AB
:101D72006E236F236CC072F06DC073F06EC074F08E
:101D82006FC075F0CDEF0EF068C072F069C073F0ED
:101D92006AC074F06BC075F0685169116A116B11F9
:101DA200D8A4D6EF0EF0D8EF0EF0E2EF0EF0000E50
:101DB200686F000E696F000E6A6F000E6B6F73EF33
:101DC2000FF0960E716FECEF0EF0712BD890753309
:101DD200743373337233000E72156C6F000E731509
:101DE2006D6F000E74156E6FFE0E75156F6F6C5170
:101DF2006D116E116F11D8A401EF0FF003EF0FF008
:101E0200E6EF0EF011EF0FF0712B010E7227000EAC
:101E1200732374237523D8907533743373337233F9
:101E2200000E72156C6F000E73156D6F000E741537
:101E32006E6FFF0E75156F6F6C516D116E116F1114
:101E4200D8A426EF0FF028EF0FF005EF0FF030EFD8
:101E52000FF07107D890723773377437753774BFC4
:101E620035EF0FF037EF0FF03FEF0FF0020E716119
:101E72003DEF0FF03FEF0FF02AEF0FF071B144EF9B
:101E82000FF046EF0FF047EF0FF0749FD8907133C9
:101E920071C06CF06D6B6E6B6F6B6CC06FF06E6BC4
:101EA2006D6B6C6B6C5172136D5173136E517413B5
:101EB2006F5175137051D8B461EF0FF063EF0FF0EB
:101EC2006BEF0FF06BBF6AEF0FF068EF0FF06BEF85
:101ED2000FF0758F72C068F073C069F074C06AF059
:101EE20075C06BF01200A39441504210D8B47CEF3D
:101EF2000FF07EEF0FF08CEF0FF041C0D9FF42C020
:101F0200DAFFDFAE87EF0FF089EF0FF08CEF0FF003
:101F1200A38447EF10F0030E0001ED19D8A494EF4B
:101F22000FF096EF0FF098EF0FF0000EED6FED51FE
:101F3200D8A49EEF0FF0A0EF0FF0A3EF0FF0A38451
:101F420047EF10F0020EED19D8A4AAEF0FF0ACEF94
:101F52000FF0C0EF0FF0010E606F000E616F000E08
:101F6200626F000E636F020E71EC14F060C041F0FC
:101F720061C042F0030E0001ED6F46EF10F0ED0577
:101F8200D8A4C6EF0FF0C8EF0FF046EF10F0400EE6
:101F92005264CEEF0FF0D0EF0FF0D4EF0FF0400EFF
:101FA2006C6FD6EF0FF052C06CF06C51525C526EF7
:101FB200000E0101466F050E476F6CC06BF0515069
:101FC200D8A4E6EF0FF0E8EF0FF017EF10F0FBEFF9
:101FD2000FF049C1D9FF4AC1DAFF46C1E1FF47C14B
:101FE200E2FFDFCFE7FF0101464B472B494B4A2B6C
:101FF20000016B0700016B51D8A402EF10F004EF4F
:1020020010F0EAEF0FF020EF10F049C1D9FF4AC1FA
:10201200DAFF46C1E1FF47C1E2FFDFCFE7FF01017F
:10202200464B472B494B4A2B00016B0700016B5172
:10203200D8A41EEF10F020EF10F006EF10F052506F
:10204200D8A426EF10F028EF10F037EF10F0400E72
:102052006C19D8A42FEF10F031EF10F035EF10F01B
:10206200020EED6F37EF10F0030EED6F010E606F91
:10207200000E616F050E626F6CC063F0020E71ECB0
:1020820014F060C041F061C042F0A384120060C04D
:102092006AF061C06BF0000164516511D8A454EF7D
:1020A20010F056EF10F058EF10F003EF11F06AC085
:1020B200D9FF6BC0DAFF62C0DFFF64516A25666F29
:1020C20065516B21676FFF0E6625D96EFF0E672182
:1020D200DA6E62C0DFFF655107E1030E645DD8B0BE
:1020E20075EF10F077EF10F079EF10F003EF11F0C9
:1020F20020EE01F06A51D9266B51DA2262C0DFFF6D
:1021020020EE02F06A51D9266B51DA2262C0DFFF5B
:1021120064516A25666F65516B21676FFE0E6625F5
:10212200D96EFF0E6721DA6E62C0DFFF64516A2545
:10213200666F65516B21676FFD0E6625D96EFF0EC6
:102142006721DA6E62C0DFFF655107E1070E645D49
:10215200D8B0AEEF10F0B0EF10F0B2EF10F003EF26
:1021620011F020EE03F06A51D9266B51DA2262C0D7
:10217200DFFF64516A25666F65516B21676FFC0E44
:102182006625D96EFF0E6721DA6E62C0DFFF6551E8
:1021920007E1090E645DD8B0D1EF10F0D3EF10F073
:1021A200D5EF10F003EF11F06AC066F06BC067F074
:1021B200661F671F664B672B030E6615686F696B98
:1021C20068516A2769516B236851645F6951655B85
:1021D200FC0E6417FF0E6517FAEF10F06AC0D9FF04
:1021E2006BC0DAFF62C0DFFF6407D8A065076A4BE5
:1021F2006B2B64516511D8A401EF11F003EF11F0BC
:10220200EFEF10F0120001C00BF002C00CF005500D
:102212000610D8A40FEF11F011EF11F013EF11F027
:10222200BEEF11F00BC0D9FF0CC0DAFF03C0DFFF15
:1022320005500B24076E06500C20086EFF0E072473
:10224200D96EFF0E0820DA6E03C0DFFF065007E1E9
:10225200030E055CD8B030EF11F032EF11F034EF1D
:1022620011F0BEEF11F020EE01F00B50D9260C5008
:10227200DA2203C0DFFF20EE02F00B50D9260C5009
:10228200DA2203C0DFFF05500B24076E06500C2034
:10229200086EFE0E0724D96EFF0E0820DA6E03C008
:1022A200DFFF05500B24076E06500C20086EFD0E52
:1022B2000724D96EFF0E0820DA6E03C0DFFF065036
:1022C20007E1070E055CD8B069EF11F06BEF11F072
:1022D2006DEF11F0BEEF11F020EE03F00B50D92696
:1022E2000C50DA2203C0DFFF05500B24076E0650A4
:1022F2000C20086EFC0E0724D96EFF0E0820DA6E41
:1023020003C0DFFF065007E1090E055CD8B08CEF71
:1023120011F08EEF11F090EF11F0BEEF11F00BC043
:1023220007F00CC008F0071E081E074A082A030E11
:102332000714096E0A6A09500B260A500C2209502A
:10234200055E0A50065AFC0E0516FF0E0616B5EF7C
:1023520011F00BC0D9FF0CC0DAFF03C0DFFF050686
:10236200D8A006060B4A0C2A05500610D8A4BCEFCA
:1023720011F0BEEF11F0AAEF11F01200800E04016D
:102382003019D8A4C7EF11F0C9EF11F078EF12F0AD
:10239200C00E0001E56F5EEF12F0BA0E0001E26FAF
:1023A200080EE36F000EE76F120EE66F78EF12F081
:1023B2003251D8A4DFEF11F0E1EF11F022EF12F069
:1023C2003251020D270EF324F66E080EF420F76E3A
:1023D2000900F5CFE2F00A00F5CFE3F0020E0001AA
:1023E200E225016E000EE321026E01C0F6FF02C07B
:1023F200F7FFF86A070EF76403D00800F55005D01E
:10240200F6CFE9FFF7CFEAFFEF500001E66F030EC8
:10241200E225016E000EE321026E01C0F6FF02C04A
:10242200F7FFF86A070EF76403D00800F55005D0ED
:10243200F6CFE9FFF7CFEAFFEF500001E76F78EF41
:1024420012F0000E0001E56F78EF12F0030E326118
:102452002DEF12F02FEF12F054EF12F03251020D65
:10246200210EF324F66E080EF420F76E0900F5CF64
:10247200E2F00A00F5CFE3F0E2C0F6FFE3C0F7FFB7
:10248200F86A070EF76403D00800F55005D0F6CFBE
:10249200E9FFF7CFEAFFEF50016E01500001E66F4E
:1024A200E76B78EF12F0000E0001E56F78EF12F0A3
:1024B200000E0001E56F78EF12F004013351016E56
:1024C200026A0250000AD8B469EF12F059EF12F012
:1024D2000150010AD8B4CEEF11F0030AD8B4D9EFF3
:1024E20011F0010AD8B427EF12F059EF12F01200DE
:1024F200000E0001AF6F000EB06F200EB16F420EE2
:10250200B26FFD0EB36F4A0EB46F010EB56F400E7F
:10251200B66F870E606F000E616FB30E626F000EB2
:10252200636F000E656F040E646F88EC21F08B0EF2
:102532000001606F000E616FAF0E626F000E636F7D
:10254200000E656F040E646F88EC21F08F0E00019F
:10255200606F000E616F6B0E626F000E636F000E94
:10256200656F040E646F88EC21F0930E0001606FBA
:10257200000E616F6F0E626F000E636F000E656F6B
:10258200040E646F88EC21F0970E0001606F000E5C
:10259200616F730E626F000E636F000E656F040E43
:1025A200646F88EC21F09B0E0001606F000E616F7A
:1025B200770E626F000E636F000E656F040E646F1C
:1025C20088EC21F09F0E0001606F000E616F7B0EA0
:1025D200626F000E636F000E656F040E646F88EC0D
:1025E20021F0A30E0001606F000E616F7F0E626F1B
:1025F200000E636F000E656F040E646F88EC21F0AD
:10260200A70E0001606F000E616F830E626F000EF5
:10261200636F000E656F040E646F88EC21F0AB0EE1
:102622000001606F000E616FB30E626F000E636F88
:10263200000E656F040E646F88EC21F0870E0001B6
:102642006B6F000E6C6F1200A394000E676E000E8B
:10265200656E000E6A6E6B0E0001606F0F0E616F89
:10266200000E636F000E626F000E656F020E646FE4
:1026720048EC10F0160E626E9F0E666E7B0E646E54
:10268200000E00016C6F6C51040D000EF324D96E24
:10269200040EF420DA6EDE6ADE6ADE6ADD6A6C2B14
:1026A2000B0E6C6557EF13F059EF13F044EF13F074
:1026B200608C000E636E6098609C6596000EE56FFC
:1026C200000E316E000E336E000E326E65B66CEF88
:1026D20013F06EEF13F05EEF13F0010E486E010E71
:1026E200476E000E466E000E456E000EEC6F000E39
:1026F2006C6F6C51020DDC0EF324D96E000EF420C7
:10270200DA6E000EDE6E000EDD6E6C51020D3C0EB6
:10271200F324D96E010EF420DA6E000EDE6E000E86
:10272200DD6EE80E6C25D96EDA6A000EDA22000E32
:10273200DF6E3A0E6C25D96EDA6A000EDA22000ECE
:10274200DF6E6C2B020E6C65A9EF13F0ABEF13F08A
:102752007AEF13F0080EDC6F040EDD6F160E6A6E50
:10276200040E0401036F300E026F080E016F040E97
:10277200006F008F000E586E000E366E000E376E20
:10278200000E386E000E396E000E0001EB6F000E67
:10279200546E1200A394000E676E000E656E000E5A
:1027A2006A6E6B0E016E0F0E026E000E046E000E4C
:1027B200036E000E066E020E056E04EC11F0160E8C
:1027C200626E9F0E666E7B0E646E000E0D6E0D5075
:1027D200040D000EF324D96E040EF420DA6EDE6AC4
:1027E200DE6ADE6ADD6A0D2A0B0E0D64FBEF13F062
:1027F200FDEF13F0E8EF13F0608C000E636E60984B
:10280200609C6596000E0001E56F000E316E000EB1
:10281200336E000E326E65B611EF14F013EF14F042
:1028220002EF14F0010E486E010E476E000E466E66
:10283200000E456E000EEC6F000E0D6E0D50020D77
:10284200DC0EF324D96E000EF420DA6E000EDE6E7A
:10285200000EDD6E0D50020D3C0EF324D96E010EFA
:10286200F420DA6E000EDE6E000EDD6EE80E0D2430
:10287200D96EDA6A000EDA22000EDF6E3A0E0D24ED
:10288200D96EDA6A000EDA22000EDF6E0D2A020E0F
:102892000D644EEF14F050EF14F01FEF14F0080E19
:1028A2000001DC6F040EDD6F160E6A6E040E040169
:1028B200036F300E026F080E016F040E006F008F5F
:1028C200000E586E000E366E000E376E000E386E19
:1028D200000E396E000E0001EB6F000E546E1200F6
:1028E2000001686F00016051D8B47AEF14F07CEFF8
:1028F20014F08AEF14F06851020DDC0EF324D96E45
:10290200000EF420DA6EDECF69F0DDCF6AF096EFCA
:1029120014F06851020D3C0EF324D96E010EF4201E
:10292200DA6EDECF69F0DDCF6AF069516A11D8A4A0
:102932009DEF14F09FEF14F0A5EF14F0000E606FFE
:10294200000E616F11EF15F020EE02F06951D926E9
:102952006A51DA2261C0DEFF62C0DDFF20EE01F0C3
:102962006951D9266A51DA2263C0DFFF69C0D9FFF3
:102972006AC0DAFF400EDF1669C0D9FF6AC0DAFF0B
:10298200000EDB8669C0D9FF6AC0DAFF000EDB8E5B
:102992006051D8B4CFEF14F0D1EF14F0F0EF14F08F
:1029A2006851020DDC0EF324D96E000EF420DA6EAB
:1029B200DECF64F0DDCF65F0040E6419666F6551F9
:1029C200676F6851020DDC0EF324D96E000EF420FD
:1029D200DA6E66C0DEFF67C0DDFF0DEF15F06851ED
:1029E200020D3C0EF324D96E010EF420DA6EDECF16
:1029F20064F0DDCF65F0040E6419666F6551676F90
:102A02006851020D3C0EF324D96E010EF420DA6EE9
:102A120066C0DEFF67C0DDFF69C060F06AC061F0BA
:102A2200120060980001E5BF19EF15F01BEF15F0D9
:102A320060EF15F031AE20EF15F022EF15F034EF14
:102A420015F0020E4E6E4550D8A42AEF15F02CEF69
:102A520015F02EEF15F09AEC1CF0000E476E000EEA
:102A6200486EB2EF15F020EE01F03D50D9263E50EF
:102A7200DA22080EDF6E20EE02F03D50D9263E50DB
:102A8200DA22300EDE6E040EDD6E3DC0D9FF3EC08E
:102A9200DAFF0C0EDF6E3DC0D9FF3EC0DAFF000E3A
:102AA200DB8EDCC0D9FFDDC0DAFF040EDF6EDCC0D6
:102AB200D9FFDDC0DAFF000EDB8EB2EF15F00401A4
:102AC20030AF66EF15F068EF15F084EF15F0010EE8
:102AD2004E6E4650D8A470EF15F072EF15F074EFF9
:102AE20015F09AEC1CF0000E476E000E486E49502D
:102AF200D8A47EEF15F080EF15F0B2EF15F026ECBA
:102B02001AF0B2EF15F0020E4E6E20EE01F03D50BB
:102B1200D9263E50DA22080EDF6E20EE02F03D503A
:102B2200D9263E50DA22300EDE6E040EDD6E3DC036
:102B3200D9FF3EC0DAFF040EDF6E3DC0D9FF3EC0B2
:102B4200DAFF000EDB8E000E476E000E486E495013
:102B5200D8A4AEEF15F0B0EF15F0B2EF15F080EF9C
:102B620015F0120020EE01F03F50D9264050DA2233
:102B7200DF50026E0250325C000E3358D8B0C4EF00
:102B820015F0C6EF15F0C8EF15F032C002F0025092
:102B9200325E000E335A000E016EDFEF15F0380E72
:102BA2000124D96EDA6A040EDA222EC0E1FF2FC0A8
:102BB200E2FFDFCFE7FF2E4A2F2A012A0250015CF3
:102BC200D8A0E6EF15F0E8EF15F0D0EF15F032508F
:102BD2003310D8B4EFEF15F0F1EF15F02AEF16F03D
:102BE20020EE01F03D50D9263E50DA22080EDF6E6B
:102BF20020EE02F03D50D9263E50DA22380EDE6E2B
:102C0200040EDD6E3FC0D9FF40C0DAFFDFBC0CEF1F
:102C120016F00EEF16F01CEF16F03DC0D9FF3EC0C5
:102C2200DAFF480EDF6E3DC0D9FF3EC0DAFF000E6C
:102C3200DB8E53EF16F03DC0D9FF3EC0DAFF080E1F
:102C4200DF6E3DC0D9FF3EC0DAFF000EDB8E53EFD0
:102C520016F020EE01F03D50D9263E50DA22080E41
:102C6200DF6E20EE02F03D50D9263E50DA22300EC1
:102C7200DE6E040EDD6E3DC0D9FF3EC0DAFF040EEB
:102C8200DF6E3DC0D9FF3EC0DAFF000EDB8E319E03
:102C92004950D8A44FEF16F051EF16F053EF16F04B
:102CA20026EC1AF01200096E0150D8B45BEF16F050
:102CB2005DEF16F06BEF16F00950020DDC0EF324F7
:102CC200D96E000EF420DA6EDECF0AF0DDCF0BF003
:102CD20077EF16F00950020D3C0EF324D96E010E67
:102CE200F420DA6EDECF0AF0DDCF0BF00A500B10C3
:102CF200D8A47EEF16F080EF16F086EF16F0000EE5
:102D0200016E000E026EF2EF16F020EE02F00A5093
:102D1200D9260B50DA2202C0DEFF03C0DDFF20EE0F
:102D220001F00A50D9260B50DA2204C0DFFF0AC094
:102D3200D9FF0BC0DAFF400EDF160AC0D9FF0BC065
:102D4200DAFF000EDB860AC0D9FF0BC0DAFF000EE5
:102D5200DB8E0150D8B4B0EF16F0B2EF16F0D1EF1F
:102D620016F00950020DDC0EF324D96E000EF42089
:102D7200DA6EDECF05F0DDCF06F0040E0518076E21
:102D82000650086E0950020DDC0EF324D96E000EB7
:102D9200F420DA6E07C0DEFF08C0DDFFEEEF16F0AA
:102DA2000950020D3C0EF324D96E010EF420DA6EA6
:102DB200DECF05F0DDCF06F0040E0518076E0650D3
:102DC200086E0950020D3C0EF324D96E010EF42058
:102DD200DA6E07C0DEFF08C0DDFF0AC001F00BC0DB
:102DE20002F0120004013039E832030B0009D8B4B2
:102DF200FDEF16F0FFEF16F04CEF17F085EF17F02E
:102E02000001E58F080E546E85EF17F0BFEC11F04C
:102E120085EF17F09FEC1AF085EF17F0580E0001BE
:102E2200E26F000EE36FE581010EE66FE58F85EF3D
:102E320017F012EC18F085EF17F0D9EC0BF085EFD4
:102E420017F0550E34250001E26FE36B000EE32309
:102E5200E581010EE66FE58F85EF17F00001E58F42
:102E6200550E04013425D96EDA6A000EDA2232C414
:102E7200DFFF85EF17F0000E0E6E020E0D6E000ED4
:102E82000F6E000E106E000E126E000E116E0EEC22
:102E92001FF085EF17F031511C6E1D6A1D50000A9C
:102EA200D8B456EF17F085EF17F01C50000AD8B4CB
:102EB2001AEF17F0010AD8B41EEF17F0020AD8B4BD
:102EC2001EEF17F0060AD8B401EF17F0030AD8B4C0
:102ED20007EF17F0010AD8B43CEF17F00F0AD8B485
:102EE2000FEF17F0010AD8B40BEF17F0030AD8B4AA
:102EF20022EF17F0010AD8B42FEF17F0070AD8B45F
:102F020085EF17F085EF17F01200080E016E000131
:102F1200E75107E1080EE65DD8B092EF17F094EFA3
:102F220017F0ACEF17F0E6C001F04F50D8A49CEFB9
:102F320017F09EEF17F0A2EF17F0010E4F6EACEFF5
:102F420017F04F04D8A4A8EF17F0AAEF17F0ACEFD0
:102F520017F0020E4F6E0150E65F000EE75B20EEA7
:102F620001F0DC51D926DD51DA2201C0DFFF380E33
:102F720001014E6F040E4F6F0001E5B1C3EF17F070
:102F8200C5EF17F009EF18F0E3EF17F0E2C0F6FF14
:102F9200E3C0F7FFF86A4EC1D9FF4FC1DAFF070E4F
:102FA200F76403D00800F55005D0F6CFE9FFF7CF5C
:102FB200EAFFEF50DF6E0001E24BE32B01014E4BC3
:102FC2004F2B01060150D8A4E9EF17F0EBEF17F0F1
:102FD200C7EF17F011EF18F0E2C0F6FFE3C0F7FFFA
:102FE200F86A4EC1D9FF4FC1DAFF070EF76403D06A
:102FF2000800F55005D0F6CFE9FFF7CFEAFFEF5012
:10300200DF6E0001E24BE32B01014E4B4F2B010619
:103012000150D8A40FEF18F011EF18F0EDEF17F0F0
:103022001200000E0401386F000E396F6FEF18F0B6
:103032000001E58F4D04D8A421EF18F023EF18F01A
:1030420089EF18F00401388389EF18F00001E58F49
:1030520089EF18F00001E58F040134BF33EF18F057
:1030620035EF18F046EF18F034510F0B016E015096
:10307200020D3C0EF324D96E010EF420DA6EDECF7F
:1030820003F0DDCF04F055EF18F034510F0B016E51
:103092000150020DDC0EF324D96E000EF420DA6E1C
:1030A200DECF03F0DDCF04F003C0D9FF04C0DAFFA6
:1030B200DFAE5EEF18F060EF18F089EF18F003C092
:1030C200D9FF04C0DAFFDFA469EF18F06BEF18F044
:1030D20089EF18F0010E386F89EF18F030511F0B8D
:1030E200016E026A0250000AD8B47AEF18F089EF32
:1030F20018F00150000AD8B419EF18F0010AD8B438
:1031020027EF18F0030AD8B42BEF18F089EF18F064
:103112000001E5AF8FEF18F091EF18F098EF18F07B
:10312200380EE26F040EE36FE581020EE66F1200C5
:10313200040130511F0BE806D8B4A2EF18F0A4EF37
:1031420018F0A6EF18F01DEF19F03039E832030B32
:10315200E806D8B4AFEF18F0B1EF18F0B3EF18F0FB
:103162001DEF19F03451D8B4B9EF18F0BBEF18F0D5
:10317200FCEF18F03405D8B4C1EF18F0C3EF18F023
:10318200FCEF18F01DEF19F0D20E0001E26F010EF4
:10319200E36F000EE76F080EE66FE581E58F1DEF26
:1031A20019F0D20E0001E26F010EE36FE58F1DEF01
:1031B20019F036C432F037C433F0DA0E2E6E010E37
:1031C2002F6E000E346E000E356E318E1DEF19F02B
:1031D200DA0E0001E26F010EE36F000EE76F070ED9
:1031E200E66FC10EE56F1DEF19F032C450F0000119
:1031F200E58F1DEF19F03151016E026A0250000A8B
:10320200D8B406EF19F01DEF19F00150000AD8B436
:10321200C5EF18F0010AD8B4D2EF18F0210AD8B4D9
:10322200DAEF18F0010AD8B4E9EF18F0030AD8B4BB
:10323200F6EF18F01DEF19F0120000016235633548
:10324200696F6951D8A428EF19F02AEF19F034EF09
:1032520019F0000E606F000E616F000E626F000EBB
:10326200636FA1EF19F060C064F061C065F062C0E5
:1032720066F063C067F0200E44EF19F0D890673310
:10328200663365336433E82E3FEF19F06451686F9B
:10329200628FFF0E6017FF0E6117FF0E6217000E9E
:1032A2006317960E695F69BF5BEF19F059EF19F06A
:1032B20071EF19F06951800A970FD8B063EF19F0D6
:1032C20065EF19F067EF19F02AEF19F0D890633320
:1032D200623361336033693F67EF19F089EF19F0A8
:1032E2001F0E696577EF19F079EF19F081EF19F088
:1032F2002AEF19F0D8906037613762376337690770
:103302006951D8A487EF19F089EF19F07BEF19F012
:103312006851D8B48FEF19F091EF19F099EF19F0C5
:10332200631F621F611F606D000E612362236323AE
:1033320060C060F061C061F062C062F063C063F0BF
:103342001200DCC0D9FFDDC0DAFF0001000EDFBCD5
:10335200010E026E040EDC19DC6FDD51DD6F080E0A
:103362005418D8A4B7EF19F0B9EF19F0CBEF19F050
:10337200040132517F0B636E6350D8B4C3EF19F06E
:10338200C5EF19F0C9EF19F0100E546ECBEF19F01A
:10339200040E546E4E04D8A4D1EF19F0D3EF19F0F5
:1033A2001BEF1AF0000120EE02F0DC51D926DD51AC
:1033B200DA22380EDE6E040EDD6E86EC17F0020E97
:1033C2004F18D8A4E7EF19F0E9EF19F0F7EF19F069
:1033D200DCC0D9FFDDC0DAFF040EDF6EDCC0D9FF2E
:1033E200DDC0DAFF000EDB8E25EF1AF00250D8A402
:1033F200FDEF19F0FFEF19F00DEF1AF0DCC0D9FF65
:10340200DDC0DAFF480EDF6EDCC0D9FFDDC0DAFFB7
:10341200000EDB8E25EF1AF0DCC0D9FFDDC0DAFF2B
:10342200080EDF6EDCC0D9FFDDC0DAFF000EDB8ED6
:1034320025EF1AF031AE20EF1AF022EF1AF023EF47
:103442001AF0319E000E4E6E12004850D8A42CEF96
:103452001AF02EEF1AF09EEF1AF0010E486E475046
:10346200D8A436EF1AF038EF1AF09EEF1AF0010ED8
:10347200476E020E4E18D8A441EF1AF043EF1AF02D
:103482005AEF1AF0000120EE01F0DC51D926DD518D
:10349200DA22000EDF6EDCC0D9FFDDC0DAFF480E93
:1034A200DF6EDCC0D9FFDDC0DAFF000EDB8E9EEFDF
:1034B2001AF04E04D8A460EF1AF062EF1AF09EEFF1
:1034C2001AF0000E4B6E20EE01F03F50D92640500C
:1034D200DA22080EDF6E20EE02F03F50D92640506D
:1034E200DA22300EDE6E040EDD6E3FC0D9FF40C020
:1034F200DAFF040EDF6E3FC0D9FF40C0DAFF000ED4
:10350200DB8E010E4B6E20EE01F03D50D9263E506F
:10351200DA22080EDF6E20EE02F03D50D9263E5030
:10352200DA22300EDE6E040EDD6E3DC0D9FF3EC0E3
:10353200DAFF800EDF6E9EEF1AF012000001E58FB7
:103542006B0E016E0F0E026E000E046E000E036E05
:10355200000E066E020E056E04EC11F0000E016EF6
:10356200040E026E000E046E000E036E000E066E56
:10357200300E056E04EC11F0608C000E156EE80E34
:103582001524D96EDA6A000EDA22000EDF6E3A0EC8
:103592001524D96EDA6A000EDA22000EDF6E152AC1
:1035A200020E1564D7EF1AF0D9EF1AF0C0EF1AF035
:1035B200550E016E000E026E000E046E000E036EBA
:1035C200000E066E020E056E04EC11F0609C080EF1
:1035D2000001DC6F040EDD6F000E3F6E040E406EC4
:1035E2003FC03DF040C03EF032C458F05850D8A41D
:1035F200FDEF1AF0FFEF1AF003EF1BF0100E546EFE
:1036020013EF1BF0000E0E6E010E0D6E580E0F6EB4
:10361200000E106E000E126E010E116E0EEC1FF0F7
:10362200200E546E12006EEC24F00009D8B41CEF88
:103632001BF01EEF1BF05BEF1BF02CEF1BF0C4EC3A
:1036420024F077EF1BF0C0EC24F077EF1BF0B8EC1E
:1036520024F077EF1BF012C10AF013C10BF021EE38
:1036620006F002D83FEF1BF00500FA6EDE50FD6E49
:10367200DE50FE6EF850FF6EFA5012000C6E0D6AAC
:103682000D50000AD8B448EF1BF028EF1BF00C5085
:10369200010AD8B428EF1BF0030AD8B420EF1BF0BC
:1036A200010AD8B424EF1BF0070AD8B428EF1BF0A4
:1036B20028EF1BF0010123911DC1D9FF1EC1DAFFC2
:1036C2001D4B1E2BDF50C8EC24F001011F07D8A0B0
:1036D20020071F512011D8A471EF1BF073EF1BF0CC
:1036E20076EF1BF0060E77EF1BF0030E12006B0E47
:1036F2000001696F800E6A6F680E0DEC20F00D0EEE
:1037020000016D6F2D0E6C6FD70EE82EFED76C2F59
:10371200FCD76D2FFAD700D0680E0001696F070E33
:103722006A6F680E0DEC20F00D0E00016D6F2D0E0C
:103732006C6FD70EE82EFED76C2FFCD76D2FFAD701
:1037420000D06B0E0001696F010E6A6F680E0DECFE
:1037520020F06A0E0001696F400E6A6F680E0DEC70
:1037620020F0230E0001696FF80E6A6F680E0DECEF
:1037720020F0190E0001696F130E6A6F680E0DECCE
:1037820020F01A0E0001696F060E6A6F680E0DECCA
:1037920020F01B0E0001696F000E6A6F680E0DECBF
:1037A20020F01C0E0001696F000E6A6F680E0DECAE
:1037B20020F01200000E0001656F63BFE5EF1BF001
:1037C200E3EF1BF0EBEF1BF0626D631FD8B0632BCE
:1037D200010E656F61BFF2EF1BF0F0EF1BF0F8EF27
:1037E2001BF0606D611FD8B0612B010E651B000ECE
:1037F200676F000E666F62516311D8B403EF1CF05D
:1038020005EF1CF02DEF1CF0010E646F0DEF1CF0A4
:10381200D89062376337642B63AF12EF1CF014EF5A
:103822001CF009EF1CF0D890663767376251605D73
:1038320063516159D8A020EF1CF022EF1CF027EF52
:103842001CF06251605F6351615B6681D8906333A3
:103852006233642F14EF1CF06551D8B433EF1CF0BF
:1038620035EF1CF039EF1CF0666D671FD8B0672B7F
:1038720066C060F067C061F012002D0E4A6E57C03C
:103882001EF0FD0E1E16D8A449EF1CF04BEF1CF0E3
:103892008DEF1CF057C01EF0D8901E323F0E1E1640
:1038A2001E50040D000EF3243F6E040EF420406EF1
:1038B2003FC03DF040C03EF0040E3D183D6E3E500C
:1038C2003E6E3FC0D9FF40C0DAFFDF30E8320F0B57
:1038D2000D0AD8A46FEF1CF071EF1CF089EF1CF0F9
:1038E200300E016E040E026E20EE02F03F50D92619
:1038F2004050DA22DECF03F0DDCF04F0000E066E78
:10390200080E056EB1EC21F03DEC1EF099EF1CF0B3
:1039120084EC20F099EF1CF05750FD0B040AD8A458
:1039220095EF1CF097EF1CF099EF1CF0A2EC19F048
:103932001200000E466E000E456E020E4E18D8A4FE
:10394200A5EF1CF0A7EF1CF0C7EF1CF020EE01F072
:103952003D50D9263E50DA22080EDF6E20EE02F0EC
:103962003D50D9263E50DA22380EDE6E040EDD6E50
:103972003DC0D9FF3EC0DAFF480EDF6E3DC0D9FF21
:103982003EC0DAFF000EDB8EF3EF1CF00001E651C1
:103992000401365D0001E75104013759D8B0D4EF74
:1039A2001CF0D6EF1CF0DAEF1CF036C4E6F037C498
:1039B200E7F086EC17F0000120EE02F0DC51D92688
:1039C200DD51DA22380EDE6E040EDD6EDCC0D9FF68
:1039D200DDC0DAFF480EDF6EDCC0D9FFDDC0DAFFE2
:1039E200000EDB8E1200066E000E076E040E086ECD
:1039F2000150026E036AD890023603360650046EF6
:103A0200056AD89004360536D89004360536025039
:103A1200042603500522D89004360536D890043681
:103A22000536045007260550082207C0D9FF08C0F2
:103A3200DAFFDF9E0150D8A421EF1DF023EF1DF025
:103A420031EF1DF00650020D3C0EF324D96E010E2B
:103A5200F420DA6E07C0DEFF08C0DDFF3DEF1DF087
:103A62000650020DDC0EF324D96E000EF420DA6E3D
:103A720007C0DEFF08C0DDFF07C0D9FF08C0DAFFBC
:103A8200DF9C20EE04F00750D9260850DA22DF8CA2
:103A920012000001626F010E0001636F010123B584
:103AA20055EF1DF057EF1DF09BEF1DF062C01CF1AA
:103AB2002393238523910E0E216F010E1B6FF40EAB
:103AC2001A6F2387D60E006F490E016F000E0C6F1E
:103AD200000E0D6FD60E026F490E036F000E0E6FB1
:103AE200000E0F6FD60E046F490E056F000E106F99
:103AF200000E116FD60E066F490E076F000E126F81
:103B0200000E136FD20E086F490E096F000E146F6C
:103B1200000E156F980E0001606F490E616FA3ECE5
:103B220024F0DFEC24F012EC24F0D7EC24F0000EA9
:103B32000001636F000163511200E5EC24F01DC126
:103B4200D9FF1EC1DAFFDF6E01011D4B1E2B1F07BD
:103B5200D8A020071F512011D8B4B2EF1DF0B4EF46
:103B62001DF0B9EF1DF0CFEC24F0050EF1EF1DF0C2
:103B72002387C4EF1DF0ACEC24F0F1EF1DF0B0ECA4
:103B820024F0F1EF1DF00CC10AF00DC10BF002D8C8
:103B9200D5EF1DF00500FA6E0051FD6E0151FE6E6B
:103BA200F850FF6EFA5012000C6E0D6A0D50000AAA
:103BB200D8B4DEEF1DF0C0EF1DF00C50010AD8B4EE
:103BC200C0EF1DF0030AD8B4BCEF1DF0010AD8B44F
:103BD200BCEF1DF0070AD8B4C0EF1DF0C0EF1DF016
:103BE200120078EC24F069EC04F020EEBEF01B0E1B
:103BF200EBCFDBFFE806FCE220EEBEF000EE6BF05E
:103C02001B0EDBCFEBFFE806FCE279EC12F06BC097
:103C1200DAF06CC0DBF00001ED51D8A413EF1EF016
:103C220015EF1EF02EEF1EF0DAC06AF0DBC06BF06B
:103C320020EE04F0DA51D926DB51DA22DECF60F031
:103C4200DECF61F0DECF62F0DECF63F01EEC19F062
:103C5200000160516C6F28EC23F074EC0FF0200E21
:103C62000001BD6F290EE82EFED7BD2FFCD700D074
:103C7200F4EF1DF086EF00F0000E4F6E000E496E5D
:103C8200000E466E000E456E000E4B6E000E4E6E1E
:103C9200DCC0D9FFDDC0DAFF7F0EDF16040E0001A3
:103CA200DC19DC6FDD51DD6FDCC0D9FFDDC0DAFF6E
:103CB2007F0EDF16040EDC19DC6FDD51DD6F3DC0B7
:103CC200D9FF3EC0DAFF7F0EDF16000EE56F000E51
:103CD200E76F000EE66F000E316E000E336E000EBF
:103CE200326EF3EC16F0000E0E6E030E0D6E000E29
:103CF2000F6E000E106E000E126E000E116E0EECA4
:103D02001FF012EC15F0120000016E6F00016E51EF
:103D12004AEC1DF00009D8B491EF1EF093EF1EF0AB
:103D220087EF1EF02C0E0001656F470E666F6F0E57
:103D3200676F000E686F40EC24F0690E0001606F3F
:103D4200000E616F000E636F010E626FEEEC23F0E6
:103D5200000E0001656F000E666F000E676F000EA9
:103D6200686F4CEC24F0A8EC24F0F9EC22F0E806A1
:103D7200D8B4BEEF1EF0C0EF1EF0B6EF1EF070C05A
:103D82006BF000016F516C6F6B51696F6CC06AF020
:103D9200120000016E6F6AC071F06BC072F06CC0ED
:103DA2006FF06DC070F000016E514AEC1DF0000919
:103DB200D8B4DEEF1EF0E0EF1EF0D4EF1EF00E0ED0
:103DC2000001656F450E666F6F0E676F000E686FBC
:103DD20040EC24F0690E0001606F000E616F000E6E
:103DE200636F010E626FEEEC23F0000E0001656F4F
:103DF200000E666F000E676F000E686F4CEC24F0C9
:103E0200A8EC24F0F9EC22F0E806D8B40BEF1FF08E
:103E12000DEF1FF003EF1FF0120018EF1FF0F4EC8C
:103E220020F051EF1FF099EC18F051EF1FF00DC088
:103E320013F00EC014F01450000AD8B427EF1FF08C
:103E42007F0AD8B44AEF1FF051EF1FF01350010A56
:103E5200D8B410EF1FF0030AD8B451EF1FF0010AD3
:103E6200D8B414EF1FF0060AD8B451EF1FF0770A46
:103E7200D8B451EF1FF0010AD8B451EF1FF0070A6E
:103E8200D8B451EF1FF0010AD8B451EF1FF051EF2F
:103E92001FF01350FF0AD8B451EF1FF051EF1FF07B
:103EA20012000001646F000160516111D8B45CEF2F
:103EB2001FF05EEF1FF078EF1FF06451020D000E4D
:103EC200F324D96E010EF420DA6E60C0DEFF61C009
:103ED200DDFF6451020D0C0EF324D96E010EF420A5
:103EE200DA6E62C0DEFF63C0DDFF90EF1FF0645147
:103EF200020D000EF324D96E010EF420DA6ED60EF6
:103F0200DE6E490EDD6E6451020D0C0EF324D96E85
:103F1200010EF420DA6E000EDE6E000EDD6E12006F
:103F220001012387A2EF1FF0BCEC24F0CFEF1FF0BA
:103F3200E3EC24F0030ECFEF1FF0B8EC24F0CFEF48
:103F42001FF00CC10AF00DC10BF002D8B3EF1FF045
:103F52000500FA6E0051FD6E0151FE6EF850FF6EC3
:103F6200FA5012000C6E0D6A0D50000AD8B4BCEF64
:103F72001FF09EEF1FF00C50010AD8B49EEF1FF005
:103F8200030AD8B495EF1FF0010AD8B495EF1FF0D9
:103F9200070AD8B499EF1FF09EEF1FF01200056ECA
:103FA20001500210D8B4D8EF1FF0DAEF1FF0F4EF8F
:103FB2001FF00550020D000EF324D96E010EF420FD
:103FC200DA6E01C0DEFF02C0DDFF0550020D0C0EED
:103FD200F324D96E010EF420DA6E03C0DEFF04C0B2
:103FE200DDFF0CEF20F00550020D000EF324D96E18
:103FF200010EF420DA6ED60EDE6E490EDD6E05502D
:10400200020D0C0EF324D96E010EF420DA6E000EAE
:10401200DE6E000EDD6E120000016B6F00016B514F
:104022004AEC1DF00009D8B419EF20F01BEF20F084
:104032000FEF20F0840E0001656F470E666F6A0E67
:10404200676F000E686F40EC24F0690E0001606F2C
:10405200000E616F000E636F010E626FEEEC23F0D3
:10406200000E0001656F000E666F000E676F000E96
:10407200686F4CEC24F0A8EC24F0F9EC22F0E8068E
:10408200D8B446EF20F048EF20F03EEF20F01200C7
:10409200000E0001666F000E656F62516311D8B4A5
:1040A20055EF20F057EF20F07FEF20F0010E646F04
:1040B2005FEF20F0D89062376337642B63AF64EF11
:1040C20020F066EF20F05BEF20F0D890653766377E
:1040D2006251605D63516159D8A072EF20F074EFB4
:1040E20020F079EF20F06251605F6351615B65817E
:1040F200D89063336233642F66EF20F065C060F0BE
:1041020066C061F01200020E4E18D8A48BEF20F0A8
:104112008DEF20F091EF20F0B3EC15F0BDEF20F021
:10412200000E4E6E4B50D8A499EF20F09BEF20F07A
:10413200BBEF20F020EE01F03D50D9263E50DA22AE
:10414200080EDF6E20EE02F03D50D9263E50DA22F4
:10415200300EDE6E040EDD6E3DC0D9FF3EC0DAFFCA
:104162000C0EDF6E3DC0D9FF3EC0DAFF000EDB8EC3
:10417200BDEF20F0000E4B6E120001012391020EE2
:10418200226FCCEF20F0BCEC24F0F3EF20F0B8EC7F
:1041920024F0F3EF20F010C10AF011C10BF021EE70
:1041A20004F002D8DFEF20F00500FA6EDE50FD6E5B
:1041B200DE50FE6EF850FF6EFA5012000C6E0D6A61
:1041C2000D50000AD8B4E8EF20F0C8EF20F00C50F0
:1041D200020AD8B4C4EF20F0010AD8B4C4EF20F028
:1041E200C8EF20F01200000E0101DA6F4B0EDB6FF8
:1041F200000EDC6F000EDD6F000EDE6F000EDF6F53
:10420200080EE06F000E536E1A0E096E010EFFECDF
:1042120021F01E0E096E020EFFEC21F0000E016E5F
:10422200400E026E050E036E400E046E020E54EC3A
:1042320016F001C043F002C044F0000E416E000EC1
:10424200426E000E0001ED6F1200E1EC24F001015C
:1042520023A12EEF21F030EF21F03DEF21F06EECA3
:1042620024F00009D8B438EF21F03AEF21F03DEF05
:1042720021F00F0E0101216F01012151020D010EEA
:10428200F324F66E080EF420F76E02D855EF21F0F3
:104292000500FA6E0900F550FD6E0900F550FE6E3C
:1042A200F850FF6EFA5012000101216F12006AA04D
:1042B2005DEF21F05FEF21F086EF21F03FC0D9FFE3
:1042C20040C0DAFF800EDE18D8A46AEF21F06CEF4E
:1042D20021F085EF21F0DCC0D9FFDDC0DAFF840ECA
:1042E200DE18D8A477EF21F079EF21F085EF21F0E5
:1042F2003FC0D9FF40C0DAFF0C0EDF6E3FC0D9FFCE
:1043020040C0DAFF000EDB8E6A90659A120062C02E
:1043120069F063C06AF060C067F061C068F0A2EF44
:1043220021F069C0D9FF6AC0DAFFDF50666F694BBE
:104332006A2B67C0D9FF68C0DAFF66C0DFFF674B30
:10434200682B00016407D8A06507642906E1652986
:10435200D8A4AEEF21F0B0EF21F092EF21F01200DD
:1043620003C009F004C00AF001C007F002C008F05F
:10437200CBEF21F009C0D9FF0AC0DAFFDF500B6E84
:10438200094A0A2A07C0D9FF08C0DAFF0BC0DFFFBB
:10439200074A082A0506D8A00606052806E10628C7
:1043A200D8A4D6EF21F0D8EF21F0BBEF21F0120014
:1043B2000001606F010E0001616F010123B3E4EFA0
:1043C20021F0E6EF21F0FCEF21F02383000E000143
:1043D200616F6051D8B4F0EF21F0F2EF21F0F7EF06
:1043E20021F0010E0101216FFAEF21F0020E01010D
:1043F200216FD9EC24F00001615112000C6E09A466
:1044020005EF22F007EF22F00CEF22F0000E016E12
:104412000C50F4EC1CF009A211EF22F013EF22F081
:1044220018EF22F0010E016E0C50F4EC1CF06A0E33
:104432000C240A6E0B6A0F0E0B220AC0D9FF0BC0A6
:10444200DAFF09C0DFFF12005450D8A42BEF22F08C
:104452002DEF22F045EF22F0000E606E000E646E2A
:10446200160E626E9F0E666E7B0E646EA584A3842A
:104472003CEF22F0608660A641EF22F043EF22F08B
:104482003BEF22F0010E546E1200000E0001EC6FA1
:10449200000E0E6E740E0D6E000E0F6E000E106E7C
:1044A200000E126E000E116E0EEC1FF060926494FC
:1044B2005CEF22F0659465B461EF22F063EF22F0C5
:1044C2005BEF22F0000E0001EB6F120020EE02F013
:1044D2000A50D9260B50DA22DECF01F0DDCF02F0EE
:1044E2000AC0D9FF0BC0DAFFDECF03F0DDCF04F044
:1044F20000EC24F0000E066E000E076E000E086E31
:10450200000E096E58EC24F0020E120020EE02F0AA
:104512000A50D9260B50DA22DECF01F0DDCF02F0AD
:104522000AC0D9FF0BC0DAFFDECF03F0DDCF04F003
:1045320000EC24F0000E066E000E076E000E086EF0
:10454200000E096E58EC24F0020E1200000E8D6E61
:10455200000E8C6E000E896E000E8A6E000E8B6E3F
:10456200070E966E92689368C70E946E95680F0157
:104572005E69C40E5D6F3C0E5C6F070E5F6F2F0E9F
:104582005B6F000E856EF18E1200010E3626000E54
:104592003722382239220001EC51D8A4D3EF22F07D
:1045A200D5EF22F0DFEF22F0EB2BEB51D8A4DCEFBA
:1045B20022F0DEEF22F0DFEF22F0EB69120001EED3
:1045C20000F0E10EEE6AE806FDE100EEDCF0120E0C
:1045D200EE6AE806FDE100EE2EF02B0EEE6AE8062A
:1045E200FDE159905992000EF86E0001F2EF1DF0B4
:1045F200010E0001606F010123B302EF23F004EF0B
:1046020023F00EEF23F023951C69DFEC24F0DBECA2
:1046120024F0DDEC24F022C160F0000160511200B0
:10462200648465986082010E0001EC6F000EEB6FEE
:10463200000E0E6E750E0D6E000E0F6E000E106ED9
:10464200000E126E000E116E0EEC1FF01200A394FB
:104652000001ED51D8A430EF23F032EF23F03CEF0C
:1046620023F06AC049F16BC04AF16CC052F0010EEE
:10467200516E010EED6FA38412000AC001F00BC04F
:1046820002F0000E046E010E036E00EC24F0000E28
:10469200066E000E076E000E086E000E096E58ECD4
:1046A20024F0040E12000AC001F00BC002F0000E4A
:1046B200046E020E036E00EC24F0000E066E000E75
:1046C200076E000E086E000E096E58EC24F0020E02
:1046D20012000AC001F00BC002F0000E046E010EBF
:1046E200036E00EC24F0000E066E000E076E000E44
:1046F200086E000E096E58EC24F0020E12000AC079
:1047020001F00BC002F0000E046E020E036E00EC0C
:1047120024F0000E066E000E076E000E086E000EEC
:10472200096E58EC24F0040E12000AC001F00BC00E
:1047320002F0000E046E020E036E00EC24F0000E76
:10474200066E000E076E000E086E000E096E58EC23
:1047520024F0020E12000AC001F00BC002F0000E9B
:10476200046E010E036E00EC24F0000E066E000EC5
:10477200076E000E086E000E096E58EC24F0020E51
:1047820012000AC001F00BC002F0000E046E010E0E
:10479200036E00EC24F0000E066E000E076E000E93
:1047A200086E000E096E58EC24F0040E12000AC0C6
:1047B20001F00BC002F0000E046E020E036E00EC5C
:1047C20024F0000E066E000E076E000E086E000E3C
:1047D200096E58EC24F0040E1200010123A7F4EF35
:1047E20023F0F6EF23F0FFEF23F060C01DF161C06C
:1047F2001EF162C01FF163C020F123971200010174
:1048020023A706EF24F008EF24F011EF24F001C0F3
:104812001DF102C01EF103C01FF104C020F1239755
:104822001200C6BA17EF24F019EF24F022EF24F099
:10483200000EC76E080EC66E000EC56E3B0EC86E29
:10484200C68A1200700ED36E000ED26E800E9B6E60
:10485200000EB56ED2AE30EF24F032EF24F02BEF23
:1048620024F01200D5EC24F064EC24F0A7EC22F042
:1048720023EC24F025EC13F025EC22F0120065C0A5
:1048820060F066C061F067C062F068C063F0000E5D
:1048920052EC1FF0120065C060F066C061F067C0A4
:1048A20062F068C063F0020E52EC1FF0120006C004
:1048B20001F007C002F008C003F009C004F0000EC6
:1048C200D0EC1FF01200000EC76E080EC66E000E6E
:1048D200C56E3B0EC86EC69A1200C5BC73EF24F0BB
:1048E20076EF24F0010E77EF24F0000E120033EC85
:1048F20024F064EC24F0F28EF28C78EC1BF01200BF
:10490200010123811C511C25C8EC24F0030E120066
:1049120001012381D8801C35C8EC24F0050E120059
:1049220001012393000E226F0E0E1200010123914A
:10493200E7EC24F0040E120001012393000E226F13
:104942000E0E120060C050F161C051F11200000E53
:10495200D9EC21F01200D2EC24F0090E1200D2ECB4
:1049620024F00A0E1200CFEC24F0050E1200EDEC3A
:1049720024F0000E1200EFEC24F0010E1200EFEC16
:1049820024F0020E1200EFEC24F0010E1200016E70
:1049920001C0C9FF120026EC21F01200C59AC58899
:1049A2001200C58AC5881200D09E12009D86120090
:1049B200C58012009D961200C69A12009E961200A1
:1049C2009E9612009E861200C9501200C5861200E1
:1049D200050E1200010E1200C5841200C5821200DB
:020000040020DA
:08000000FFFFFFFFFFFFFFFF00
:020000040030CA
:0E00000023225F3CFFD180FF0FC00FE00F40B6
:00000001FF
